:10000000020327E4F5087590FFC2932097137F142D
:10001000FE1202EF3097FD7F147E001202EF75088A
:10002000012096147F147E001202EF3096FD7F149B
:100030007E001202EF7508052095147F147E0012D1
:1000400002EF3095FD7F147E001202EF7508092043
:1000500094147F147E001202EF3094FD7F147E0012
:100060001202EF75080D7590FFC2932097147F144C
:100070007E001202EF3097FD7F147E001202EF75B2
:1000800008022096147F147E001202EF3096FD7F46
:10009000147E001202EF7508062095147F147E006E
:1000A0001202EF3095FD7F147E001202EF75080AF0
:1000B0002094147F147E001202EF3094FD7F147E92
:1000C000001202EF75080E7590FFC2912097147F01
:1000D000147E001202EF3097FD7F147E001202EFB3
:1000E0007508032096147F147E001202EF3096FDEF
:1000F0007F147E001202EF7508072095147F147E8E
:10010000001202EF3095FD7F147E001202EF750899
:100110000B2094147F147E001202EF3094FD7F14A4
:100120007E001202EF75080F7590FFC290209714A1
:100130007F147E001202EF3097FD7F147E001202C2
:10014000EF7508042096147F147E001202EF30969B
:10015000FD7F147E001202EF7508082095147F14AD
:100160007E001202EF3095FD7F147E001202EF75C3
:10017000080C2094147F147E001202EF3094FD7F4F
:10018000147E001202EF750810AF0822BB010CE5C7
:100190008229F582E5833AF583E0225006E925823B
:1001A000F8E622BBFE06E92582F8E222E58229F57F
:1001B00082E5833AF583E49322EF8DF0A4A8F0CF93
:1001C0008CF0A428CE8DF0A42EFE22BC000BBE0025
:1001D00029EF8DF084FFADF022E4CCF875F008EF44
:1001E0002FFFEE33FEEC33FCEE9DEC984005FCEE69
:1001F0009DFE0FD5F0E9E4CEFD22EDF8F5F0EE849A
:1002000020D21CFEADF075F008EF2FFFED33FD405E
:1002100007985006D5F0F222C398FD0FD5F0EA22D8
:100220007F0AEA24FFFDE434FFFC7E008E0D8F0E72
:100230008C0F8D107F017E00E4FBEBC39510E50F62
:100240006480F8748098500AAC0DAD0E1201B90BA1
:1002500080E8221203047BFF7A0379337D017F015A
:1002600012027B1200038F11E51160F7FB7A007513
:100270000C027D017F021202BC80E88B088A09898A
:100280000A1202D9E4FDAB08AA09A90A8D82758376
:100290000012018CFF60061202B20D80E922CFCD60
:1002A000CFCECCCE1201CB7C007D0A1201CBED2447
:1002B00030FFD2A6120318C2A702031E8A0A8B0BB4
:1002C0001202D9AA0CEAD39400400D120220AC0A03
:1002D000AD0B12029E1A80ED22AE07BE0104ED1492
:1002E0008006BE0209ED243F4480FF12033E22EF48
:1002F0001FAC0670011E4C600A7D0B7CBEDCFEDD6F
:10030000FC80EC227F3812033E7F0C12033E7F06F6
:1003100012033E7F0102033EC2A58F80D2A77F0257
:100320007EEFDEFEDFFC22787FE4F6D8FD758111DA
:1003300002025348656C6C6F576F726C6400C2A602
:08034000120318C2A702031EFC
:00000001FF
