:100000000203CCE4F5087590FFC2932097137F1488
:10001000FE1203843097FD7F147E0012038475085E
:10002000012096147F147E001203843096FD7F1405
:100030007E001203847508052095147F147E00123B
:1000400003843095FD7F147E001203847508092017
:1000500094147F147E001203843094FD7F147E007C
:1000600012038475080D7590FFC2932097147F14B6
:100070007E001203843097FD7F147E001203847586
:1000800008022096147F147E001203843096FD7FB0
:10009000147E001203847508062095147F147E00D8
:1000A0001203843095FD7F147E0012038475080AC4
:1000B0002094147F147E001203843094FD7F147EFC
:1000C0000012038475080E7590FFC2912097147F6B
:1000D000147E001203843097FD7F147E0012038487
:1000E0007508032096147F147E001203843096FD59
:1000F0007F147E001203847508072095147F147EF8
:10010000001203843095FD7F147E0012038475086D
:100110000B2094147F147E001203843094FD7F140E
:100120007E0012038475080F7590FFC2902097140B
:100130007F147E001203843097FD7F147E0012032B
:10014000847508042096147F147E00120384309670
:10015000FD7F147E001203847508082095147F1417
:100160007E001203843095FD7F147E001203847597
:10017000080C2094147F147E001203843094FD7FB9
:10018000147E00120384750810AF08221203997BB5
:10019000FF7A0379AD7D017F011203101200038FF6
:1001A00015E5156046D3940A5033C3E5129404E56F
:1001B0001194005028AE13AF147C007D0A12027611
:1001C0008E138F14E51575F00A84E5F02514F514E7
:1001D000E43513F5130512E51270020511750C04D0
:1001E000AB14AA137D017F02120351E515640B7055
:1001F00036E514B4290DE513B409087BFF7A0379B9
:10020000B680067BFF7A0379B97D0E7F0112031059
:10021000E4F513F514F511F512750C04AB14AA13DB
:100220007D017F02120351E515640C600302019CFD
:10023000F513F514F511F512750C04AB14AA137D22
:10024000017F0212035102019CBB010CE58229F5DA
:1002500082E5833AF583E0225006E92582F8E6221A
:10026000BBFE06E92582F8E222E58229F582E583D4
:100270003AF583E49322EF8DF0A4A8F0CF8CF0A49C
:1002800028CE8DF0A42EFE22BC000BBE0029EF8DDF
:10029000F084FFADF022E4CCF875F008EF2FFFEE0C
:1002A00033FEEC33FCEE9DEC984005FCEE9DFE0F1A
:1002B000D5F0E9E4CEFD22EDF8F5F0EE8420D21C75
:1002C000FEADF075F008EF2FFFED33FD40079850BD
:1002D00006D5F0F222C398FD0FD5F0EA227F0AEA94
:1002E00024FFFDE434FFFC7E008E0D8F0E8C0F8DFD
:1002F000107F017E00E4FBEBC39510E50F6480F8EE
:10030000748098500AAC0DAD0E1202760B80E82274
:100310008B088A09890A12036EE4FDAB08AA09A9B1
:100320000A8D82758300120249FF60061203470D91
:1003300080E922CFCDCFCECCCE1202887C007D0AC0
:10034000120288ED2430FFD2A61203BDC2A7020319
:10035000C38A0A8B0B12036EAA0CEAD39400400DD9
:100360001202DDAC0AAD0B1203331A80ED22AE0788
:10037000BE0104ED148006BE0209ED243F4480FF57
:100380001203D822EF1FAC0670011E4C600A7D0BD1
:100390007CBEDCFEDDFC80EC227F381203D87F0CB3
:1003A0001203D87F061203D87F010203D85061736D
:1003B00073776F7264004F4B0045525200C2A58F95
:1003C00080D2A77F027EEFDEFEDFFC22787FE4F69C
:1003D000D8FD75811502018CC2A61203BDC2A70209
:0203E00003C355
:00000001FF
