:10000000020374120345750C05AB12AA117D017F22
:10001000011202E61201768F13E513B401150512E1
:10002000E51270020511750C05FBAA117D017F0117
:100030001202E6E513B40216E5121512700215114C
:10004000750C05AB12AA117D017F011202E6E513C2
:1000500064037040FCAD12FF1202637F057E001244
:100060000330E511FD7C007F011202637F057E00F5
:100070001203307BFF7A0379037D017F021202872E
:100080007FE87E031203307BFF7A03790C7D017FCA
:1000900002120287E51364046003020014FF1202D7
:1000A0000A7511008F127F0112020AEFFEEE421153
:1000B000750C05AB12AA117D017F011202E67BFFD0
:1000C0007A0379127D017F021202877FE87E031294
:1000D00003307BFF7A03790C7D017F0212028702D5
:1000E0000014BB010CE58229F582E5833AF583E033
:1000F000225006E92582F8E622BBFE06E92582F8B1
:10010000E222E58229F582E5833AF583E49322EF42
:100110008DF0A4A8F0CF8CF0A428CE8DF0A42EFEF4
:1001200022BC000BBE0029EF8DF084FFADF022E46D
:10013000CCF875F008EF2FFFEE33FEEC33FCEE9DAC
:10014000EC984005FCEE9DFE0FD5F0E9E4CEFD22D3
:10015000EDF8F5F0EE8420D21CFEADF075F008EF5E
:100160002FFFED33FD4007985006D5F0F222C398DB
:10017000FD0FD5F0EA22E4F50820B1137F14FE123A
:10018000033030B1FD7F147E00120330750801206A
:10019000B0147F147E0012033030B0FD7F147E0057
:1001A00012033075080220B2147F147E001203304F
:1001B00030B2FD7F147E0012033075080320B314A3
:1001C0007F147E0012033030B3FD7F147E001203D3
:1001D00030750804AF08227F0AEA24FFFDE434FFEB
:1001E000FC7E008E0D8F0E8C0F8D107F017E00E443
:1001F000FBEBC39510E50F6480F8748098500AAC4F
:100200000DAD0E12010F0B80E8228F081203947FB0
:10021000A012023A120368AF0812023A12036812DF
:1002200003947FA112023A1203681202AA8F097F77
:100230000112038012039DAF0922AD07E4FB748015
:100240007E00A803088006CEA2E713CE13D8F8FFDD
:10025000EDF582EF558224FF92A0D2A1C2A10BBB83
:1002600008DC228F088C098D0A1203947FA01202E9
:100270003A120368AF0812023A120368AF0A120278
:100280003A12036802039D8B088A09890A12031A2D
:10029000E4FDAB08AA09A90A8D827583001200E269
:1002A000FF60061202DC0D80E922E4FFD2A0FED23C
:1002B000A130A00D7480A806088002C313D8FC42A8
:1002C00007C2A10EBE08E822CFCDCFCECCCE120100
:1002D000217C007D0A120121ED2430FFD2A61203F9
:1002E00059C2A702035F8A0A8B0B12031AAA0CEAEF
:1002F000D39400400D1201D7AC0AAD0B1202C81AFC
:1003000080ED225249474854204F4B0020202020A6
:10031000200072656164204F4B00AE07BE0104ED02
:10032000148006BE0209ED243F4480FF12038A2296
:10033000EF1FAC0670011E4C600A7D0B7CBEDCFE1C
:10034000DDFC80EC227F3812038A7F0C12038A7F47
:100350000612038A7F0102038AC2A58F80D2A77F7B
:10036000027EEFDEFEDFFC22D2A0D2A1A2A0E43307
:10037000FFC2A122787FE4F6D8FD75811302000345
:10038000EF24FF92A0D2A1C2A122C2A6120359C299
:10039000A702035FD2A0D2A1C2A0C2A122C2A0D252
:0403A000A1D2A02224
:00000001FF
