:1000000002001EEF1FAA0670011E4A600BE4FDED00
:09001000C3947850EE0D80F72234
:10001B000200DD787FE4F6D8FD75810802006502E9
:10002B0000AAE493A3F8E493A34003F68001F2083B
:10003B00DFF48029E493A3F85407240CC8C333C41A
:10004B00540F4420C8834004F456800146F6DFE485
:10005B00800B01020408102040809000FCE47E011C
:10006B009360BCA3FF543F30E509541FFEE493A3F8
:10007B0060010ECF54C025E060A840B8E493A3FA0A
:10008B00E493A3F8E493A3C8C582C8CAC583CAF096
:10009B00A3C8C582C8CAC583CADFE9DEE780BE75BF
:1000AB00A888E4F58920B6FD7F0A7E0012000320A4
:1000BB00B6F3750801E508C3940F50E9D28E7FF4AF
:1000CB007E01120003C28E7F327E001200030508F0
:1000DB0080E3C0E0C083C082B2A0E508900100932A
:1000EB00F58DE50890010F93F58BD082D083D0E08E
:1000FB00320108000000E2E5E8EAECEEF0F1F3F47F
:10010B00F5F6F7F800040C09140208060216051A96
:03011B00010402DA
:00000001FF
