:1004240050617373776F7264004F4B0045525200F2
:100220001204107BFF7A0479247D0180661200039A
:100230008F1CE51C6046D3940A5033C3E51994041F
:10024000E51894005028AE1AAF1B7C007D0A1201FD
:10025000B98E1A8F1BE51C75F00A84E5F0251BF595
:100260001BE4351AF51A0519E51970020518750C05
:1002700004AB1BAA1A7D017F021203C8E51CB40B54
:10028000ACE51BB42914E51AB4090F7BFF7A047995
:100290002D7D0E7F0112038780937BFF7A047930D6
:0902A0007D0E7F011203878084AA
:1003FB00EF1FAC0670011E4C600A7D0B7CBEDCFE51
:04040B00DDFC80ECA8
:01040F0022CA
:06043400C2A58F80D2A7D3
:08043A007F027EEFDEFEDFFC15
:010442002297
:0A044F00C2A6120434C2A702043A48
:1003AA00CFCDCFCECCCE1201CB7C007D0A1201CBB1
:0403BA00ED2430FFFF
:0A03BE00D2A6120434C2A702043ACA
:1003E500AE07BE0104ED148006BE0209ED243F44AC
:0603F50080FF12044F22FC
:100410007F3812044F7F0C12044F7F0612044F7F67
:040420000102044F82
:0A045900AC031203E5AF040203BE7A
:060387008B088A09890AB7
:10038D001203E5E4FDAB08AA09A90A8D8275830065
:0C039D0012018CFF60061203BE0D80E907
:0103A9002231
:0C0354007F0AEA24FFFDE434FFFC7E0079
:080360008E0D8F0E8C0F8D1025
:100368007F017E00E4FBEBC39510E50F6480F87411
:0E0378008098500AAC0DAD0E1201B90B80E852
:010386002254
:0403C8008A0A8B0B07
:1003CC001203E5AA0CEAD39400400D120354AC0AB4
:0803DC00AD0B1203AA1A80ED1B
:0103E40022F6
:1002A9001203E5C3EA64809480400B7F2B1203BEDE
:1002B9008A168B17800E7F2D1203BEC3E49BF51798
:1002C900E49AF516AA15EAD39400400D120354AC2A
:0902D90016AD171203AA1A80EDFC
:0102E20022F9
:0402E3008A1F8B20C3
:1002E7001203E5AA21EAD3940040297F101203568E
:1002F700AC1FAD20CFCDCFCECCCE1201CBEF540F5C
:10030700FEC3940AEE5004243080022437FF120300
:04031700BE1A80D1B9
:01031B0022BF
:04031C008A248B257F
:100320001203E5AA26EAD394004028EA24FFFDE45C
:1003300034FFFC7F027E00120360AC24AD25CFCDDC
:10034000CFCECCCE1201CBEF54012430FF1203BE2E
:030350001A80D23E
:010353002287
:10000300E4F5087590FFC2932097137F14FE120343
:10001300FB3097FD7F147E001203FB7508012096C9
:10002300147F147E001203FB3096FD7F147E0012B2
:1000330003FB7508052095147F147E001203FB3023
:1000430095FD7F147E001203FB7508092094147F2D
:10005300147E001203FB3094FD7F147E001203FB19
:1000630075080D7590FFC2932097147F147E0012BC
:1000730003FB3097FD7F147E001203FB75080220FB
:1000830096147F147E001203FB3096FD7F147E00CE
:100093001203FB7508062095147F147E001203FBE0
:1000A3003095FD7F147E001203FB75080A2094141B
:1000B3007F147E001203FB3094FD7F147E00120335
:1000C300FB75080E7590FFC2912097147F147E0074
:1000D3001203FB3097FD7F147E001203FB750803A8
:1000E3002096147F147E001203FB3096FD7F147E4E
:1000F300001203FB7508072095147F147E0012037A
:10010300FB3095FD7F147E001203FB75080B2094D2
:10011300147F147E001203FB3094FD7F147E0012C3
:1001230003FB75080F7590FFC2902097147F147E10
:10013300001203FB3097FD7F147E001203FB75084A
:10014300042096147F147E001203FB3096FD7F1467
:100153007E001203FB7508082095147F147E00129D
:1001630003FB3095FD7F147E001203FB75080C2002
:1001730094147F147E001203FB3094FD7F147E00E1
:080183001203FB750810AF0820
:01018B002251
:03000000020443B4
:0C044300787FE4F6D8FD758126020220C7
:10018C00BB010CE58229F582E5833AF583E0225028
:10019C0006E92582F8E622BBFE06E92582F8E22272
:0D01AC00E58229F582E5833AF583E493228C
:1001B900EF8DF0A4A8F0CF8CF0A428CE8DF0A42E5A
:0201C900FE2214
:1001CB00BC000BBE0029EF8DF084FFADF022E4CC18
:1001DB00F875F008EF2FFFEE33FEEC33FCEE9DECE1
:1001EB00984005FCEE9DFE0FD5F0E9E4CEFD22ED27
:1001FB00F8F5F0EE8420D21CFEADF075F008EF2F71
:10020B00FFED33FD4007985006D5F0F222C398FD61
:05021B000FD5F0EA22FE
:00000001FF
