:10000000020164E709F608DFFA8046E709F208DF33
:10001000FA803E88828C83E709F0A3DFFA8032E31E
:1000200009F608DFFA8078E309F208DFFA807088C1
:10003000828C83E309F0A3DFFA806489828A83E0FB
:10004000A3F608DFFA805889828A83E0A3F208DFEA
:10005000FA804C80D280FA80C680D4806980F28099
:1000600033801080A680EA809A80A880DA80E280BF
:10007000CA803389828A83ECFAE493A3C8C582C814
:10008000CCC583CCF0A3C8C582C8CCC583CCDFE97E
:10009000DEE7800D89828A83E493A3F608DFF9EC1A
:1000A000FAA9F0EDFB2289828A83ECFAE0A3C8C5A5
:1000B00082C8CCC583CCF0A3C8C582C8CCC583CCCC
:1000C000DFEADEE880DB89828A83E493A3F208DF3B
:1000D000F980CC88F0EF60010E4E60C388F0ED240B
:1000E00002B4040050B9F582EB2402B4040050AF0E
:1000F00023234582239000537378087C007D007B86
:10010000FF7A0179907E007F041200D3E4FFFE7431
:10011000082FF8E6F5A0E5A0540F640F601EE4FE7A
:10012000EEFD3395E0FC74802DF58274013CF5837F
:10013000E493B5A003AF06220EBE10E40FBF04CFB8
:100140007FFF22E4FFF5801200F9EFF460F9EFFD84
:100150003395E0FC74702DF58274013CF583E493D3
:10016000F58080E3787FE4F6D8FD75810B020143CA
:100170003F065B4F666D7D077F6F777C585E7971B8
:10018000EEDEBE7EEDDDBD7DEBDBBB7BE7D7B7777B
:04019000EFDFBF7F5F
:00000001FF
