:0A00000002001E02010901080000C1
:0C000B0002000E758CFE85088AB2B73228
:10001B000200AA787FE4F6D8FD758108020065021C
:10002B0000D1E493A3F8E493A34003F68001F20814
:10003B00DFF48029E493A3F85407240CC8C333C41A
:10004B00540F4420C8834004F456800146F6DFE485
:10005B00800B0102040810204080900006E47E0112
:10006B009360BCA3FF543F30E509541FFEE493A3F8
:10007B0060010ECF54C025E060A840B8E493A3FA0A
:10008B00E493A3F8E493A3C8C582C8CAC583CAF096
:10009B00A3C8C582C8CAC583CADFE9DEE780BEC074
:1000AB00E0C0D075D000C000C007758D50758B189F
:1000BB00AFA07801EF08800123D8FDF5A0D007D0C1
:1000CB0000D0D0D0E032E4F5A0758911758CFEF527
:1000DB008AD28875A88B75B801C28CC28E05087F31
:1000EB00017E001200F380F5EF1FAA0670011E4A75
:1000FB00600BE4FDEDC3947850EE0D80F722C0E069
:10010B00B28CB28EE5A0700575A0E0800375A000DF
:03011B00D0E032FF
:00000001FF
