:0300000002000EED
:10000B000200CB787FE4F6D8FD7581230200550200
:10001B00009AE493A3F8E493A34003F68001F2085B
:10002B00DFF48029E493A3F85407240CC8C333C42A
:10003B00540F4420C8834004F456800146F6DFE495
:10004B00800B01020408102040809000F6E47E0132
:10005B009360BCA3FF543F30E509541FFEE493A308
:10006B0060010ECF54C025E060A840B8E493A3FA1A
:10007B00E493A3F8E493A3C8C582C8CAC583CAF0A6
:10008B00A3C8C582C8CAC583CADFE9DEE780BE1232
:10009B000110E4F5238523217F0A7E001201270539
:1000AB0023E523C3946440ED752364E523D39400C7
:1000BB0040E08523217F0A7E00120127152380EB68
:1000CB00C0E0C0F0C0D0758A9C758CFF0522E5227C
:1000DB0075F0648485F022E522C395215004D2A1EA
:1000EB008002C2A1D0D0D0F0D0E0320909000A0AB8
:1000FB000A0A0A0A0A0A0C123F065B4F666D7D0755
:10010B007F6F0040005389F0438901758A9C758C81
:10011B00FFC28DD28CD2A9D2AFC2B922EF1FAC06CF
:10012B0070011E4C600A7D0B7CBEDCFEDDFC80EC9E
:01013B0022A1
:00000001FF
