:100A4300120BC0120BBA120B7BEF604B120BC98F48
:100A53001EE51EB41603E4F51FE51EB40C03751F53
:100A630001E51EB41803751F02E51EB45E03751F6E
:100A730003E51F7004FF120BC3E51FB401057F32AA
:100A8300120BC3E51FB402057F4B120BC3E51FB462
:100A930003057F64120BC3E51FFD7C007F01120970
:030AA300D680A357
:100B4900EF1FAC0670011E4C600A7D027CEFDCFED3
:040B5900DDFC80EC53
:010B5D002275
:100AA600E4F52220B1137F14FE120B4930B1FD7F0D
:100AB600147E00120B4975220120B0147F147E00AB
:100AC600120B4930B0FD7F147E00120B49752202CD
:100AD60020B2147F147E00120B4930B2FD7F147EC3
:100AE60000120B4975220320B3147F147E00120BEB
:100AF6004930B3FD7F147E00120B49752204AF22E4
:010B060022CC
:0C0B6E000A143F065B4F666D7D077F6F29
:1009D600EF14B4080050549009EB75F003A4C583D6
:1009E60025F0C58373020A03020A07020A0B020AEC
:1009F6000F020A13020A1B020A23020A2BD2A48040
:100A06000ED2A48012D2A48016D2A4801AC2A4D276
:100A1600A3D2A28016C2A4D2A3C2A2800EC2A4C22E
:100A2600A3D2A28006C2A4C2A3C2A274142DF8E661
:0D0A3600F5807F017E00120B49E4F580225F
:100B320053890F438910758B9C758DFFC28FD28E9E
:070B4200D2ABD2AFC2BB220F
:030BC000020B32F3
:030BC3008F20225E
:03001B00020B07CE
:100B0700C0E0C0F0C0D0758B9C758DFF0521E52135
:100B170075F0648485F021E521C395205004D290B7
:0B0B27008002C290D0D0D0F0D0E032AD
:0B0B9500D288C289D2A8D2AFD2B82209
:100B5E005389F0438901E4F58AF58CC28DC28C224B
:0B0BA000AD07AC068C8CAF058F8A22DD
:090BAB00AF8CEFFEAD8AEDFF22D4
:060BB400EF24FF928C22E9
:060BBA00120B5E020B9518
:0D0B7B00E50F6006E4F50F7F01227F0022E8
:0D0B8800E50D6006E4F50D7F01227F0022DF
:030BC600AF0C224F
:030BC900AF0B224D
:03000300020800F0
:10080000C0E0C0F0C083C082C0D075D000C000C0BE
:1008100001C002C003C004C005C006C007E50870DF
:100820000CFFFE120BA07F01120BB48049E5086497
:10083000017049120BAB8E098F0AE4FFFE120BA068
:10084000D3E50A94A6E509942E4010E50A948EE5B6
:10085000099432500675080202092FD3E50A948CD8
:10086000E50994264010E50A9474E509942A500697
:10087000750D0102092775080102092FE5086402B8
:10088000600302092F120BAB8E098F0AE4FFFE12E0
:100890000BA0D3E50A9414E5099402402BE50A94D1
:1008A000FCE50994055021E50E131313541F241081
:1008B000F8C000E6FFE50E5407FEF8740108800258
:1008C000C333D8FCF45F8033D3E50A9426E509945A
:1008D00006402FE50A940EE509940A5025E50E130B
:1008E0001313541F2410F8C000E6FFE50E5407FE52
:1008F000F87401088002C333D8FC4FD000F6050E0F
:100900008006750E00750801E50EC3942040207521
:100910000E00E511F4B5100FE513F4B512098510BA
:100920000C85120B750F01E4FF120BB4750800D093
:1009300007D006D005D004D003D002D001D000D01B
:0A094000D0D082D083D0F0D0E03296
:0300000002094AA8
:0C094A00787FE4F6D8FD75812202099147
:10095600020A43E493A3F8E493A34003F68001F26A
:1009660008DFF48029E493A3F85407240CC8C333A2
:10097600C4540F4420C8834004F456800146F6DF71
:10098600E4800B0102040810204080900B6EE47E88
:10099600019360BCA3FF543F30E509541FFEE49366
:1009A600A360010ECF54C025E060A840B8E493A32D
:1009B600FAE493A3F8E493A3C8C582C8CAC583CA58
:1009C600F0A3C8C582C8CAC583CADFE9DEE780BE10
:010B7A00007A
:00000001FF
