:10000000020269BB010CE58229F582E5833AF5839A
:10001000E0225006E92582F8E622BBFE06E92582A9
:10002000F8E222E58229F582E5833AF583E493221A
:10003000EF8DF0A4A8F0CF8CF0A428CE8DF0A42EE4
:10004000FE22BC000BBE0029EF8DF084FFADF02234
:10005000E4CCF875F008EF2FFFEE33FEEC33FCEE46
:100060009DEC984005FCEE9DFE0FD5F0E9E4CEFD39
:1000700022EDF8F5F0EE8420D21CFEADF075F0080C
:10008000EF2FFFED33FD4007985006D5F0F222C365
:1000900098FD0FD5F0EA221202367B417D017F01E7
:1000A00012027F7BFF7A0279897D037F011201D8DA
:1000B000750C027B427A007D097F01120219750CD2
:1000C000027BBE7AFF7D0C7F01120135750C027B2D
:1000D000A57A007D017F021200FC750C087BA57AD1
:1000E000007D047F0212016D7BDF7D0D7F02120215
:1000F0007F7B437D0E7F0212027F80FE8A0A8B0B7C
:1001000012024AAA0CEAD3940040297F101201A7D8
:10011000AC0AAD0BCFCDCFCECCCE120042EF540FF8
:10012000FEC3940AEE5004243080022437FF1202EA
:100130000F1A80D12212024AC3EA9400400B7F2B8F
:1001400012020F8A0D8B0E800E7F2D12020FC3E458
:100150009BF50EE49AF50DAA0CEAD39400400D121B
:1001600001A5AC0DAD0E1201FB1A80ED228A0A8B9F
:100170000B12024AAA0CEAD394004028EA24FFFD9D
:10018000E434FFFC7F027E001201B1AC0AAD0BCF5C
:10019000CDCFCECCCE120042EF54012430FF12025C
:1001A0000F1A80D2227F0AEA24FFFDE434FFFC7E8E
:1001B000008E0F8F108C118D127F017E00E4FBEBFF
:1001C000C39512E5116480F8748098500AAC0FADA5
:1001D000101200300B80E8228B088A09890A12026B
:1001E0004AE4FDAB08AA09A90A8D827583001200B2
:1001F00003FF600612020F0D80E922CFCDCFCECCD7
:10020000CE1200427C007D0A120042ED2430FFD263
:10021000A612025AC2A70202608A0A8B0B12024A75
:10022000AA0CEAD39400400D1201A5AC0AAD0B1242
:1002300001FB1A80ED227F381202757F0C120275C5
:100240007F061202757F01020275EDBF0103148063
:1002500002243F4480FF12027522C2A58F80D2A7DC
:100260007F0B7EBEDEFEDFFC22787FE4F6D8FD75D4
:100270008112020097C2A612025AC2A7020260AC03
:0F0280000312024AAF0402020F48656C6C6F0054
:00000001FF
