:10000000020006020092787FE4F6D8FD75811202A4
:10001000004D0200B8E493A3F8E493A34003F680F4
:1000200001F208DFF48029E493A3F85407240CC8F4
:10003000C333C4540F4420C8834004F4568001469F
:10004000F6DFE4800B010204081020408090010DCF
:10005000E47E019360BCA3FF543F30E509541FFECA
:10006000E493A360010ECF54C025E060A840B8E43B
:1000700093A3FAE493A3F8E493A3C8C582C8CAC5BE
:1000800083CAF0A3C8C582C8CAC583CADFE9DEE750
:1000900080BEC0E0C0D075D000C000E512C3940996
:1000A00050040512800375120174082512F8E6F554
:1000B00080D000D0D0D0E032758910D2A8D288D2BA
:1000C000AFC2A0E4F51274082512F8E6F580759029
:1000D000FFE51260FC1200DA80F77E01E4FDEEF429
:1000E000F590E4FCECC3951250061200F90C80F474
:1000F000EE25E0FE0DBD08E622E4FF758D3C758B14
:10010000B0D28E308FFDC28F0FBF14EF220A08FFCE
:0A011000F9A4B0999282F8809000E3
:00000001FF
