:10000000020709EC4D6011E8497017ED33EC330439
:10001000600DE4FCFFFEFD22E933E8330470F802D2
:1000200002DD1202A858046009E4CC24815006289D
:1000300050090202E72840030202E4C0E0EB4A70E4
:1000400044B98006D0E0FB0202D3EF4E701CBD80A5
:1000500008EBFFEAFEE9FD80EBE98DF0A4FEE5F098
:100060000200ECE9CDF9EAFEEBFFEF89F0A4FCE534
:10007000F0CE89F0A42EFFE435F0CD89F0A42DFE5A
:10008000E435F08067EF4E7005BD80D780C3EF8BFD
:10009000F0A4ACF0EE8BF0A42CFCE435F0F8EF8A81
:1000A000F0A42CE5F038FCE433CB8DF0A42CFCE577
:1000B000F03BF8EE8AF0A42CFCE5F038F8E433CFFE
:1000C00089F0A42CFCE5F038CF3400CE89F0A42FC1
:1000D000FFE5F03EFEE433C98DF0A42EFEE5F039D5
:1000E000CD8AF0A42FFFE5F03EFEE43DFD33D0E0E5
:1000F000FB50070BBB000F0202E7EC2CFCEF33FFB9
:10010000EE33FEED33FD0202BF0202E7EC5D046058
:1001100005E8590470030202DD1202A8580460F6D3
:10012000EC4860F2EC7004FDFEFF22C860DB248125
:10013000C85009C398600250060202E49850CAF5FC
:1001400082E9294B4A7005AB820202D375F0007C2C
:100150001A7880C3EF9BEE9AED99400DC3EF9BFF99
:10016000EE9AFEED99FDE842F0DC23ACF0D0E0FF22
:10017000D0E0FED0E0FDAB8220E7101BEB60BAECD4
:100180002CFCEF33FFEE33FEED33FD0202BFE8033C
:10019000F830E705C0F075F000EF2FFFEE33FEED0D
:1001A00033FD40B830E7C280AA74F8CC6480CCC874
:1001B0006480C8F58204604FC3EB9FF5F0EA9E426D
:1001C000F0E99D42F0E89C45F0603C501DE5825FFF
:1001D000FFE582D313CB5BCBF42B5582FB50280A6F
:1001E000BA002409B9002008801DE5825BFBE58286
:1001F000D313CF5FCFF4C3132F5582FF50090EBE28
:1002000000050DBD00010CC3EB9FF5F0EA9E42F026
:10021000E99D42F0E89C45F06007CC4820E701B337
:10022000EC22ED33EC33600A047003BD8004ECB2C1
:10023000E7FC2275F020800E75F010800575F0083F
:100240007D007E007F003392D530D503120454EC3C
:10025000334010EF33FFEE33FEED33FDEC33FCD5CE
:10026000F0ED22E5F0247EA2D513CC92E7CDCEFFAF
:1002700022EDD2E7CD33EC3392D524814006E4FF62
:10028000FEFDFC22FCE4CFCECDCC24E0501174FF67
:1002900080EDC3CC13CCCD13CDCE13CECF13CF0472
:1002A00070F030D5DE020454E9D2E7C933E833F800
:1002B00092D5EDD2E7CD33EC33FC5002B2D522EC2F
:1002C00030E7100FBF000C0EBE00080DBD00040B80
:1002D000EB6014A2D5EB13FCED92E7FD2274FFFC5A
:1002E000FDFEFF22E480F8A2D574FF13FC7D80E4BC
:1002F00080EFBB010CE58229F582E5833AF583E0C6
:10030000225006E92582F8E622BBFE06E92582F89E
:10031000E222E58229F582E5833AF583E49322EF30
:100320008DF0A4A8F0CF8CF0A428CE8DF0A42EFEE2
:1003300022BC000BBE0029EF8DF084FFADF022E45B
:10034000CCF875F008EF2FFFEE33FEEC33FCEE9D9A
:10035000EC984005FCEE9DFE0FD5F0E9E4CEFD22C1
:10036000EDF8F5F0EE8420D21CFEADF075F008EF4C
:100370002FFFED33FD4007985006D5F0F222C398C9
:10038000FD0FD5F0EA2275F008758200EF2FFFEE21
:1003900033FECD33CDCC33CCC58233C5829BED9AB1
:1003A000EC99E58298400CF582EE9BFEED9AFDEC0F
:1003B00099FC0FD5F0D6E4CEFBE4CDFAE4CCF9A855
:1003C0008222B800C1B90059BA002DEC8BF084CF5D
:1003D000CECDFCE5F0CBF97818EF2FFFEE33FEED34
:1003E00033FDEC33FCEB33FB10D703994004EB995E
:1003F000FB0FD8E5E4F9FA227818EF2FFFEE33FE71
:10040000ED33FDEC33FCC933C910D7059BE99A40A5
:1004100007EC9BFCE99AF90FD8E0E4C9FAE4CCFBBD
:100420002275F010EF2FFFEE33FEED33FDCC33CC11
:10043000C833C810D7079BEC9AE899400AED9BFD9A
:10044000EC9AFCE899F80FD5F0DAE4CDFBE4CCFAAD
:10045000E4C8F922C3E49FFFE49EFEE49DFDE49C12
:10046000FC221206EF7FE87E031206A51206BA7B75
:10047000FF7A0679FC7D017F011205C91206EF1291
:1004800005128F168E158D148C13E4FFFEFDFCAB48
:1004900016AA15A914A8131201A9501E7B2D7D01BF
:1004A0007F0212071FAF16AE15AD14AC1312022255
:1004B0008F168E158D148C1380097B2B7D017F0286
:1004C00012071FAF16AE15AD14AC13120271AB07B5
:1004D000AA06750C037D027F0212060A7B2E7D059B
:1004E0007F0212071F7F007E407D1C7C46AB16AA50
:1004F00015A914A813120003120271E47B107A27C5
:10050000F9F81203C2750C047D067F0212060A0276
:10051000047C1206447FCC12065E7FBE12065E1279
:1005200006278F081206278F09EFFB7A00750E0841
:100530007D017F0112055EE508FB7A00750E087DDE
:10054000097F0112055EE509FEE508FFFDAC06EC3A
:10055000120238E4FBFA7980784112010C228A0CED
:100560008B0D12068FAA0EEAD394004028EA24FFCE
:10057000FDE434FFFC7F027E001205A2AC0CAD0D41
:10058000CFCDCFCECCCE120331EF54012430FF12A9
:1005900006001A80D2227F0AEA24FFFDE434FFFC21
:1005A0007E008E0F8F108C118D127F017E00E4FB78
:1005B000EBC39512E5116480F8748098500AAC0F73
:1005C000AD1012031F0B80E8228B088A09890A12DA
:1005D000068FE4FDAB08AA09A90A8D827583001273
:1005E00002F2FF60061206000D80E922CFCDCFCEC9
:1005F000CCCE1203317C007D0A120331ED2430FF92
:10060000D2A61206E0C2A70206E68A0A8B0B1206E1
:100610008FAA0CEAD39400400D120596AC0AAD0BDC
:100620001205EC1A80ED22E4FDFC120677EF600D56
:100630007401A804088002C333D8FC42050CBC082E
:10064000E9AF0522D2B7C2B77FE3DFFED2B77F1D85
:10065000DFFEA2B7E433FE7FE3DFFEAF0622AD0785
:10066000E4FC7401A804088002C333D8FC5DFF12C7
:1006700006CE0CBC08EC22C2B77F01DFFED2B77FEA
:1006800001DFFEA2B7E433FE7F16DFFEAF0622AE27
:1006900007BE0104ED148006BE0209ED243F44802C
:1006A000FF12071522EF1FAC0670011E4C600A7D79
:1006B0000B7CBEDCFEDDFC80EC227F381207157F50
:1006C0000C1207157F061207157F01020715C2B726
:1006D0007E03DEFEEF24FF92B77E16DEFED2B72247
:1006E000C2A58F80D2A77F027EEFDEFEDFFC221242
:1006F00006447FCC12065E7F4402065E54656D7030
:10070000657261747572653A00787FE4F6D8FD759C
:100710008116020462C2A61206E0C2A70206E6AC77
:090720000312068FAF040206006B
:00000001FF
