:0A00000002017FC2A0D2A1D2A0220B
:10000B000200F31203A112040B8F28E528B4010A96
:10001B00E5267F0070027F018F26E528B40207E4F6
:10002B00F525F524F527E52864037033E525FD7CDC
:10003B0000E4FF12032A7F057E001203CEE524FDA8
:10004B007C007F0112032A7F057E001203CEE52779
:10005B00FD7C007F0212032A7F057E001203CEE592
:10006B0028B40415E4FF1202AA8F257F011202AAFD
:10007B008F247F021202AA8F27E52575F00A84FDD3
:10008B007C007F01120402E52575F00A84E5F0FD82
:10009B007C007F021204027D0B7C007F03120402A2
:1000AB00E52475F00A84FD7C007F04120402E5242C
:1000BB0075F00A84E5F0FD7C007F051204027D0BD0
:1000CB007C007F06120402E52775F00A84FD7C0094
:1000DB007F07120402E52775F00A84E5F0FD7C002A
:1000EB007F08120402020011C0E0C0F0C083C0827E
:1000FB00C0D075D000C000C001C002C003C004C096
:10010B0005C006C007758A66758CFC051FE51F7058
:10011B0002051EC39414E51E94004009751E00755C
:10012B001F001202710521E52170020520C3940204
:10013B00E5209400400975200075210012036C0521
:10014B0023E52370020522C3940AE522940040099B
:10015B00752200752300120303D007D006D005D0FB
:10016B0004D003D002D001D000D0D0D082D083D025
:10017B00F0D0E032787FE4F6D8FD75812E0201C60F
:10018B0002000EE493A3F8E493A34003F68001F27C
:10019B0008DFF48029E493A3F85407240CC8C33375
:1001AB00C4540F4420C8834004F456800146F6DF44
:1001BB00E4800B0102040810204080900387E47E4A
:1001CB00019360BCA3FF543F30E509541FFEE49339
:1001DB00A360010ECF54C025E060A840B8E493A300
:1001EB00FAE493A3F8E493A3C8C582C8CAC583CA2B
:1001FB00F0A3C8C582C8CAC583CADFE9DEE780BEE3
:10020B00E4F580EF14B40800505490022375F0030A
:10021B00A4C58325F0C5837302023B02023F020291
:10022B004302024702024B02025302025B020263C9
:10023B00D2A4800ED2A48012D2A48016D2A4801A8B
:10024B00C2A4D2A3D2A28016C2A4D2A3C2A2800EF1
:10025B00C2A4C2A3D2A28006C2A4C2A3C2A2741219
:10026B002DF8E6F5802285292A1203B88F29E52A75
:10027B00B40107E5297003752B01E52AB40207E5E4
:10028B00297003752B02E52AB40307E52970037562
:10029B002B03E52AB40407E5297003752B04228F81
:1002AB002C1203F97FA01202DA1203E3AF2C120215
:1002BB00DA1203E31203F97FA11202DA1203E3123B
:1002CB00034E8F2D7F011203EF120003AF2D22ADD2
:1002DB0007E4FB74807E00A803088006CEA2E71318
:1002EB00CE13D8F8FFEDF582EF558224FF92A0D202
:1002FB00A1C2A10BBB08DC22E52660220527E5275E
:10030B00C394644019E4F5270524E524943C400E7E
:10031B00E4F5240525E525943C4003E4F525228FDF
:10032B002C8C2D8D2E1203F97FA01202DA1203E30F
:10033B00AF2C1202DA1203E3AF2E1202DA1203E32E
:10034B00020003E4FFD2A0FED2A130A00D7480A85E
:10035B0006088002C313D8FC4207C2A10EBE08E8F0
:10036B002274092508F8E6FD7C00AF0812020B0584
:10037B0008E508C394094003750801220909000A1E
:10038B000A0A0A0A0A0A0A0C123F065B4F666D7DBF
:10039B00077F6F0040005389F0438901758A6675AA
:1003AB008CFCC28DD28CD2A9D2AFC2B922E4FF2071
:1003BB00B1010F20B0027F0220B2027F0320B302F3
:1003CB007F0422EF1FAC0670011E4C600A7D0B7C74
:1003DB00BEDCFEDDFC80EC22D2A0D2A1A2A0E433D5
:1003EB00FFC2A122EF24FF92A0D2A1C2A122D2A0D0
:1003FB00D2A1C2A0C2A122AE0574092FF8A6062273
:06040B00E4AF2BF52B22EB
:00000001FF
