:0800000002050AC2B5C2B622D6
:10000B00020760E51DB4020B051AE51A75F00684AC
:10001B0085F01AE51D640360030200E87411251ACC
:10002B00F806D3E511648094E34003E4F511D3E5BE
:10003B00126480948C4003751201E51264016023F5
:10004B00E5126403601DE51264056017E512640791
:10005B006011E5126408600BE512640A6005E51295
:10006B00B40C0BD3E5136480949F404D8048E5128C
:10007B0064046011E5126406600BE5126409600507
:10008B00E512B40B0BD3E5136480949E402B8026B2
:10009B00E512B40224E51175F0041203C7AFF0EFBB
:1000AB00700BD3E5136480949D400E8009D3E51348
:1000BB006480949C4003751301D3E514648094977A
:1000CB004003E4F514D3E515648094BB4003E4F5D9
:1000DB0015D3E516648094BB4003E4F516E51D6467
:1000EB000460030201E37411251AF816C3E51164C9
:1000FB008094805003751163C3E512648094815022
:10010B000375120CE51264016023E5126403601D94
:10011B00E51264056017E51264076011E5126408C7
:10012B00600BE512640A6005E512B40C17C3E51306
:10013B0064809481500375131FD3E5136480949FDF
:10014B004072806DE51264046011E5126406600B69
:10015B00E51264096005E512B40B17C3E51364805F
:10016B009481500375131ED3E5136480949E404411
:10017B00803FE5126402703CE51175F0041203C771
:10018B00AFF0EF7017C3E5136480948150037513C0
:10019B001DD3E5136480949D401A8015C3E5136449
:1001AB00809481500375131CD3E5136480949C4099
:1001BB0003751301C3E51464809480500375141701
:1001CB00C3E51564809480500375153BC3E5166435
:1001DB00809480500375163BE51A7014E51CB4012E
:1001EB000F7BFF7A0879557D017F011207CC8011B7
:1001FB00E511FB3395E0FA750C027D017F011208C6
:10020B000DE51AB40114E51CB4010F7BFF7A0879D4
:10021B00557D047F011207CC8011E512FB3395E06D
:10022B00FA750C027D047F0112080DE51AB4021455
:10023B00E51CB4010F7BFF7A0879557D077F01120E
:10024B0007CC8011E513FB3395E0FA750C027D07A3
:10025B007F0112080DE51AB40314E51CB4010F7BE2
:10026B00FF7A0879557D017F021207CC8011E514C6
:10027B00FB3395E0FA750C027D017F0212080DE548
:10028B001AB40414E51CB4010F7BFF7A0879557D71
:10029B00047F021207CC8011E515FB3395E0FA754C
:1002AB000C027D047F0212080DE51AB40512E51C41
:1002BB00B4010D7BFF7A0879557D077F020207CCCD
:1002CB00E516FB3395E0FA750C027D077F021208E9
:1002DB000D22E4FDFC7F8E120666E51175F00A8493
:1002EB0075F010A4FFAEF0E51175F00A84EF7F8C6A
:1002FB00120660E51275F00A8475F010A4FFAEF0DB
:10030B00E51275F00A847C00EF7F88120660E51316
:10031B0075F00A8475F010A4FFAEF0E51375F00AC2
:10032B00847C00EF25F0FDEC3EFC7F86120666E533
:10033B001475F00A8475F010A4FFAEF0E51475F097
:10034B000A847C00EF25F0FDEC3EFC7F84120666F0
:10035B00E51575F00A8475F010A4FFAEF0E5157580
:10036B00F00A847C00EF25F0FDEC3EFC7F82120648
:10037B0066E51675F00A8475F010A4FFAEF0E5166D
:10038B0075F00A847C00EF25F0FDEC3EFC7F8012BB
:10039B000666E51775F00A8475F010A4FFAEF0E55C
:1003AB001775F00A847C00EF25F0FDEC3EFC7F8A8C
:1003BB001206667D807C007F8E020666C2D530F702
:1003CB0007B2D563F0FF05F030E70CB2D5F4048427
:1003DB0063F0FF05F080018430D502F40422BB01E9
:1003EB000CE58229F582E5833AF583E0225006E994
:1003FB002582F8E622BBFE06E92582F8E222E58299
:10040B0029F582E5833AF583E49322EF8DF0A4A8D6
:10041B00F0CF8CF0A428CE8DF0A42EFE22BC000BC6
:10042B00BE0029EF8DF084FFADF022E4CCF875F01F
:10043B0008EF2FFFEE33FEEC33FCEE9DEC984005FE
:10044B00FCEE9DFE0FD5F0E9E4CEFD22EDF8F5F0C4
:10045B00EE8420D21CFEADF075F008EF2FFFED33CC
:10046B00FD4007985006D5F0F222C398FD0FD5F04A
:10047B00EA227F8C120712EFC4540F75F00AA4FE08
:10048B00EF540F2EF5117F88120712EFC4540F751E
:10049B00F00AA4FEEF540F2EF5127F86120712EF0F
:1004AB00C4540F75F00AA4FEEF540F2EF5137F847E
:1004BB00120712EFC4540F75F00AA4FEEF540F2E5F
:1004CB00F5147F82120712EFC4540F75F00AA4FEC5
:1004DB00EF540F2EF5157F80120712EFC4540F75D2
:1004EB00F00AA4FEEF540F2EF5167F8A120712EFB7
:1004FB00C4540F75F00AA4FEEF540F2EF517227893
:10050B007FE4F6D8FD75811D0205510206BDE4930B
:10051B00A3F8E493A34003F68001F208DFF48029EB
:10052B00E493A3F85407240CC8C333C4540F4420DA
:10053B00C8834004F456800146F6DFE4800B0102C9
:10054B0004081020408090088DE47E019360BCA3CA
:10055B00FF543F30E509541FFEE493A360010ECF17
:10056B0054C025E060A840B8E493A3FAE493A3F841
:10057B00E493A3C8C582C8CAC583CAF0A3C8C58201
:10058B00C8CAC583CADFE9DEE780BE12047DE51168
:10059B00FB3395E0FA750C027D017F0112080DE526
:1005AB0012FB3395E0FA750C027D047F0112080DE6
:1005BB00E513FB3395E0FA750C027D077F011208FA
:1005CB000DE514FB3395E0FA750C027D017F0212E9
:1005DB00080DE515FB3395E0FA750C027D047F02DF
:1005EB0012080DE516FB3395E0FA750C027D077FBB
:1005FB000202080DE4F50820B1137F14FE12084027
:10060B0030B1FD7F147E0012084075080120B01434
:10061B007F147E0012084030B0FD7F147E0012085C
:10062B004075080220B2147F147E0012084030B2CD
:10063B00FD7F147E0012084075080320B3147F144D
:10064B007E0012084030B3FD7F147E001208407507
:10065B000804AF082225F0FDEC3EFC8C088D09AB9D
:10066B0007D2B5E4FD74017E00A805088005C333ED
:10067B00CE33CED8F9FFEBF582EF558224FF92B43F
:10068B00D2B6C2B60DBD08DDE4FD74017E00A8052F
:10069B00088005C333CE33CED8F9FFE5085EFEE5FF
:1006AB00095F4E24FF92B4D2B6C2B60DBD08DBC2B1
:1006BB00B52212086A1200037BFF7A0879587D0174
:1006CB007F011207CC7BFF7A0879617D017F0212D3
:1006DB0007CC1202DD1205FF8F1DE51DB40116E5D7
:1006EB001B7007751B01F51A800BE51BB40106E4A3
:1006FB00F51B12047DE51B1460080470D8120596D7
:10070B0080D312000E80CEAD07E4F9430501D2B5BC
:10071B00FB74017E00A803088005C333CE33CED80B
:10072B00F9FFEDF582EF558224FF92B4C2B6D2B633
:10073B000BBB08DDE4FBD2B6C2B630B40D7401A816
:10074B0003088002C333D8FC42010BBB08E8C2B4D8
:10075B00C2B5AF0122C0E0C0D075D000C007758A0A
:10076B0066758CFC0519E51970020518C394F4E540
:10077B001894014012751800751900B2A0E51C7F82
:10078B000070027F018F1CD007D0D0D0E0327F0ADF
:10079B00EA24FFFDE434FFFC7E008E0D8F0E8C0FE0
:1007AB008D107F017E00E4FBEBC39510E50F648099
:1007BB00F8748098500AAC0DAD0E1204160B80E83D
:1007CB00228B088A09890A12082AE4FDAB08AA09B8
:1007DB00A90A8D827583001203E9FF6006120803D4
:1007EB000D80E922CFCDCFCECCCE1204287C007D5C
:1007FB000A120428ED2430FFD2A612087EC2A702EB
:10080B0008848A0A8B0B12082AAA0CEAD39400409C
:10081B000D120799AC0AAD0B1207EF1A80ED22AE41
:10082B0007BE0104ED148006BE0209ED243F44808F
:10083B00FF12089722EF1FAC0670011E4C600A7D59
:10084B000B7CBEDCFEDDFC80EC2220200020202D6A
:10085B0020202D20200020203A20203A2020007F2D
:10086B00381208977F0C1208977F061208977F01A2
:10087B00020897C2A58F80D2A77F027EEFDEFEDF34
:10088B00FC22071117071D1534380600C2A61208E3
:06089B007EC2A7020884E2
:00000001FF
