:10000000020075C200C201E4FDF5A0E580F4540FC2
:1000100024FE601024FE601224FC6012240770107D
:10002000D200800CC200C2018006C2018002D2014F
:1000300030001F20010EE4FDEDC3940450CD1200EA
:10004000570D80F47D03EDC3940040BF1200571D8F
:1000500080F4E4F5A080B4ED90008193F5A07FF4E6
:100060007E7DEFD39400400CEED3940040031E80BD
:10007000F71F80EE22787FE4F6D8FD75812002001C
:05008000030102040869
:00000001FF
