:0A0000000209E1C2A0D2A1D2A022A1
:10000B0002068AEC4D6011E8497017ED33EC3304AE
:10001B00600DE4FCFFFEFD22E933E8330470F802C7
:10002B0002E81202B358046009E4CC24815006287C
:10003B0050090202F22840030202EFC0E0EB4A70C3
:10004B0044B98006D0E0FB0202DEEF4E701CBD808F
:10005B0008EBFFEAFEE9FD80EBE98DF0A4FEE5F08D
:10006B000200F7E9CDF9EAFEEBFFEF89F0A4FCE51E
:10007B00F0CE89F0A42EFFE435F0CD89F0A42DFE4F
:10008B00E435F08067EF4E7005BD80D780C3EF8BF2
:10009B00F0A4ACF0EE8BF0A42CFCE435F0F8EF8A76
:1000AB00F0A42CE5F038FCE433CB8DF0A42CFCE56C
:1000BB00F03BF8EE8AF0A42CFCE5F038F8E433CFF3
:1000CB0089F0A42CFCE5F038CF3400CE89F0A42FB6
:1000DB00FFE5F03EFEE433C98DF0A42EFEE5F039CA
:1000EB00CD8AF0A42FFFE5F03EFEE43DFD33D0E0DA
:1000FB00FB50070BBB000F0202F2EC2CFCEF33FFA3
:10010B00EE33FEED33FD0202CA0202F2EC5D046037
:10011B0005E8590470030202E81202B3580460F6B2
:10012B00EC4860F2EC7004FDFEFF22C860DB24811A
:10013B00C85009C398600250060202EF9850CAF5E6
:10014B0082E9294B4A7005AB820202DE75F0007C16
:10015B001A7880C3EF9BEE9AED99400DC3EF9BFF8E
:10016B00EE9AFEED99FDE842F0DC23ACF0D0E0FF17
:10017B00D0E0FED0E0FDAB8220E7101BEB60BAECC9
:10018B002CFCEF33FFEE33FEED33FD0202CAE80326
:10019B00F830E705C0F075F000EF2FFFEE33FEED02
:1001AB0033FD40B830E7C280AA74F8CC6480CCC869
:1001BB006480C8F58204604FC3EB9FF5F0EA9E4262
:1001CB00F0E99D42F0E89C45F0603C501DE5825FF4
:1001DB00FFE582D313CB5BCBF42B5582FB50280A64
:1001EB00BA002409B9002008801DE5825BFBE5827B
:1001FB00D313CF5FCFF4C3132F5582FF50090EBE1D
:10020B0000050DBD00010CC3EB9FF5F0EA9E42F01B
:10021B00E99D42F0E89C45F06007CC4820E701B32C
:10022B00EC22ED33EC33600A047003BD8004ECB2B6
:10023B00E7FC2275F020800E75F010800575F00834
:10024B007D007E007F003392D530D50312045FEC26
:10025B00334010EF33FFEE33FEED33FDEC33FCD5C3
:10026B00F0ED22E5F0247EA2D513CC92E7CDCEFFA4
:10027B0022EDD2E7CD33EC3392D524814006E4FF57
:10028B00FEFDFC22FCE4CFCECDCC24E0501174FF5C
:10029B0080EDC3CC13CCCD13CDCE13CECF13CF0467
:1002AB0070F030D5DE02045FE9D2E7C933E833F8EA
:1002BB0092D5EDD2E7CD33EC33FC5002B2D522EC24
:1002CB0030E7100FBF000C0EBE00080DBD00040B75
:1002DB00EB6014A2D5EB13FCED92E7FD2274FFFC4F
:1002EB00FDFEFF22E480F8A2D574FF13FC7D80E4B1
:1002FB0080EFBB010CE58229F582E5833AF583E0BB
:10030B00225006E92582F8E622BBFE06E92582F893
:10031B00E222E58229F582E5833AF583E49322EF25
:10032B008DF0A4A8F0CF8CF0A428CE8DF0A42EFED7
:10033B0022BC000BBE0029EF8DF084FFADF022E450
:10034B00CCF875F008EF2FFFEE33FEEC33FCEE9D8F
:10035B00EC984005FCEE9DFE0FD5F0E9E4CEFD22B6
:10036B00EDF8F5F0EE8420D21CFEADF075F008EF41
:10037B002FFFED33FD4007985006D5F0F222C398BE
:10038B00FD0FD5F0EA2275F008758200EF2FFFEE16
:10039B0033FECD33CDCC33CCC58233C5829BED9AA6
:1003AB00EC99E58298400CF582EE9BFEED9AFDEC04
:1003BB0099FC0FD5F0D6E4CEFBE4CDFAE4CCF9A84A
:1003CB008222B800C1B90059BA002DEC8BF084CF52
:1003DB00CECDFCE5F0CBF97818EF2FFFEE33FEED29
:1003EB0033FDEC33FCEB33FB10D703994004EB9953
:1003FB00FB0FD8E5E4F9FA227818EF2FFFEE33FE66
:10040B00ED33FDEC33FCC933C910D7059BE99A409A
:10041B0007EC9BFCE99AF90FD8E0E4C9FAE4CCFBB2
:10042B002275F010EF2FFFEE33FEED33FDCC33CC06
:10043B00C833C810D7079BEC9AE899400AED9BFD8F
:10044B00EC9AFCE899F80FD5F0DAE4CDFBE4CCFAA2
:10045B00E4C8F922C3E49FFFE49EFEE49DFDE49C07
:10046B00FC221209C87FE87E03120990E4FF1207F1
:10047B00888F137F011207888F0AD3E5136480944A
:10048B00FD5016C3E50A64809449400DD3E50A6418
:10049B0080F8E5136480985006751314750A0F12D3
:1004AB0009A57BFF7A0979047D017F011208317B55
:1004BB00FF7A0979077D017F021208317BFF7A09E8
:1004CB00790B7D097F02120831E513FB3395E0FAB6
:1004DB007519037D047F021206E2E50AFB3395E0F2
:1004EB00FA7519037D0C7F021206E2120937120A04
:1004FB00148F141209C81207B88F128E118D108C1D
:10050B000FE4FFFEFDFCAB12AA11A910A80F1201FC
:10051B00B4501E7B2D7D037F01120A01AF12AE1169
:10052B00AD10AC0F12022D8F0E8E0D8D0C8C0B801F
:10053B00157B2B7D037F01120A0185120E85110D90
:10054B0085100C850F0BAF0EAE0DAD0CAC0B120264
:10055B007CAB07AA067519037D047F011208AE7BDD
:10056B002E7D077F01120A01E4FFFE7DC87C42ABA2
:10057B000EAA0DA90CA80B12000E12027CE47B64D0
:10058B00FAF9F81203CD7519027D087F011208AE36
:10059B00E514700302063AB4010E0513D3E5136498
:1005AB008094FD400375137DE514B402111513D32C
:1005BB00E50A6480F8E51364809850020513E5148E
:1005CB00B40311050AC3E5136480F8E50A64809847
:1005DB004002150AE514B4040E150AC3E50A64803B
:1005EB0094495003750AC9E513FB3395E0FA751965
:1005FB00037D047F021206E2E50AFB3395E0FA75F0
:10060B0019037D0C7F021206E2E513FD3395E0FC26
:10061B00E4FF12080D7F057E00120990E50AFD33F9
:10062B0095E0FC7F0112080D7F057E00120990AC4E
:10063B0013EC120248AB12AA11A910A80F1201B4A5
:10064B00600A40087BFF7A09790F8019AC0AEC121B
:10065B000248AB12AA11A910A80F1201B450107BBB
:10066B00FF7A0979147D0D7F011208310204F97BA1
:10067B00FF7A0979197D0D7F011208310204F9C047
:10068B00E0C0F0C083C082C0D075D000C000C001F4
:10069B00C002C003C004C005C006C007758A6675DA
:1006AB008CFC0509E50970020508C39414E5089450
:1006BB0000400975080075090012071CD007D00609
:1006CB00D005D004D003D002D001D000D0D0D0823E
:1006DB00D083D0F0D0E032120964C3EA64809480F6
:1006EB00400B7F2B1208868A1A8B1B800E7F2D12D4
:1006FB000886C3E49BF51BE49AF51AAA19EAD3946E
:10070B0000400D120755AC1AAD1B1208721A80ED82
:10071B002285202112094E8F20E521B40107E52007
:10072B007003752201E521B40207E52070037522E1
:10073B0002E521B40307E5207003752203E521B41C
:10074B000407E5207003752204227F0AEA24FFFDCB
:10075B00E434FFFC7E008E1C8F1D8C1E8D1F7F01D1
:10076B007E00E4FBEBC3951FE51E6480F874809854
:10077B00500AAC1CAD1D12032A0B80E8228F1512F8
:10078B000A0B7FA01207E41209D5AF151207E4126A
:10079B0009D5120A0B7FA11207E41209D5120854CE
:1007AB008F167F011209ED120003AF16221208906B
:1007BB007FCC12091E7FBE12091E1208CB8F151299
:1007CB0008CBEFFEE515FFFDAC06EC120243E4FB94
:1007DB00FA7980784112011722AD07E4FB74807E11
:1007EB0000A803088006CEA2E713CE13D8F8FFEDBE
:1007FB00F582EF558224FF92A0D2A1C2A10BBB08B8
:10080B00DC228F158C168D17120A0B7FA01207E4B2
:10081B001209D5AF151207E41209D5AF171207E469
:10082B001209D50200038B158A168917120964E485
:10083B00FDAB15AA16A9178D827583001202FDFF59
:10084B0060061208860D80E922E4FFD2A0FED2A139
:10085B0030A00D7480A806088002C313D8FC420791
:10086B00C2A10EBE08E822CFCDCFCECCCE12033C18
:10087B007C007D0A12033CED2430FFD2A61209B98D
:10088B00C2A70209BFC2AFD2B7C2B77FE3DFFED2A6
:10089B00B77F1DDFFEA2B7E433FE7FE3DFFED2AFEF
:1008AB00AF06228A178B18120964AA19EAD394008F
:1008BB00400D120755AC17AD181208721A80ED22B5
:1008CB00E4FDFC1208E8EF600D7401A80408800237
:1008DB00C333D8FC42050CBC08E9AF0522C2AFC23A
:1008EB00B77F01DFFED2B77F01DFFEA2B7E433FE95
:1008FB007F16DFFED2AFAF0622543A0054483A00BF
:10090B00544C3A004F563A48004F563A4C00202070
:10091B00202000AD07E4FC7401A804088002C33357
:10092B00D8FC5DFF12097A0CBC08EC225389F0430A
:10093B008901758A66758CFCC28DD28CD2A9D2AF17
:10094B00C2B922E4FF20B1010F20B0027F0220B216
:10095B00027F0320B3027F0422AE07BE0104ED1415
:10096B008006BE0209ED243F4480FF1209F722C224
:10097B00AFC2B77E03DEFEEF24FF92B77E16DEFE1C
:10098B00D2B7D2AF22EF1FAC0670011E4C600A7DAE
:10099B000B7CBEDCFEDDFC80EC227F381209F77F7E
:1009AB000C1209F77F061209F77F010209F7C2A59E
:1009BB008F80D2A77F027EEFDEFEDFFC2212089033
:1009CB007FCC12091E7F4402091ED2A0D2A1A2A085
:1009DB00E433FFC2A122787FE4F6D8FD75812202B1
:1009EB00046DEF24FF92A0D2A1C2A122C2A61209CC
:1009FB00B9C2A70209BFAC03120964AF040208868F
:0F0A0B00D2A0D2A1C2A0C2A122E4AF22F5222222
:00000001FF
