:0300000002000EED
:10000B0002009A787FE4F6D8FD7581310200550223
:10001B0000E2E493A3F8E493A34003F68001F20813
:10002B00DFF48029E493A3F85407240CC8C333C42A
:10003B00540F4420C8834004F456800146F6DFE495
:10004B00800B0102040810204080900116E47E0111
:10005B009360BCA3FF543F30E509541FFEE493A308
:10006B0060010ECF54C025E060A840B8E493A3FA1A
:10007B00E493A3F8E493A3C8C582C8CAC583CAF0A6
:10008B00A3C8C582C8CAC583CADFE9DEE780BEC084
:10009B00E0C083C082C0D075D000C006E52525E046
:1000AB00246EF582E43401F5837401937002E493BA
:1000BB00601AE52525E0246EF582E43401F583E42E
:1000CB0093FE740193F58AEEF58CB2A5D006D0D0D1
:1000DB00D082D083D0E03212014274082526F8E694
:1000EB00FFF460238F27052674082526F8E675F0A4
:1000FB000CA4FFAEF01201590526C28C7F057E00C1
:10010B00120159D28C80D3C28C80FE0A283F065B29
:10011B004F666D7D077F6F1D080E040E04140414CB
:10012B000416041604140812041204110411040F0B
:10013B00040F040D08FF005389F0438901758A668B
:10014B00758CFCC28DD28CD2A9D2AFC2B922EF1F53
:10015B00AC0670011E4C600A7D0B7CBEDCFEDDFC28
:10016B0080EC22F88CF8F3F95BF9B8FA15FA67FA18
:10017B00B9FB04FB4BFB90FBCFFC10FC44FC79FC64
:10018B00ACFCDCFD09FD34FD5CFD82FDA6FDC8FD6C
:10019B00E8FE06FE22FE3DFE56FE6EFE85FE9AFE34
:0B01AB00AEFEC1FED3FEE4FEF4FF0335
:00000001FF
