:0800000002000E0208000000DE
:10000B0002009A787FE4F6D8FD758109020055024B
:10001B0000D9E493A3F8E493A34003F68001F2081C
:10002B00DFF48029E493A3F85407240CC8C333C42A
:10003B00540F4420C8834004F456800146F6DFE495
:10004B00800B0102040810204080900003E47E0125
:10005B009360BCA3FF543F30E509541FFEE493A308
:10006B0060010ECF54C025E060A840B8E493A3FA1A
:10007B00E493A3F8E493A3C8C582C8CAC583CAF0A6
:10008B00A3C8C582C8CAC583CADFE9DEE780BEC084
:10009B00E0C0D0B2B00509E50970020508C3949021
:1000AB00E50894015008758CEA758A04801BC3E53A
:1000BB00099420E50894035008758CE0758A188024
:1000CB0008C28C750800750900D0D0D0E03275A835
:1000DB0082E4F589758CE0758A182097FD7F0A7E7E
:1000EB00001200F92097F33097FDD28C80ECEF1FB4
:0F00FB00AC0670011E4C70F6E4FF0FBF78FC22BC
:00000001FF
